:100000000C9434000C943F050C944F000C944F005A
:100010000C944F000C944F000C944F000C944F0024
:100020000C944F000C944F000C944F000C94180546
:100030000C944F000C944F000C944F000C944F0004
:100040000C944F000C944F000C94C4040C944F007B
:100050000C944F000C944F000C944F000C944F00E4
:100060000C944F000C944F0011241FBECFEFD1E031
:10007000DEBFCDBF12E0A0E0B1E0E6EAFBE002C0E7
:1000800005900D92AC31B107D9F712E0ACE1B2E0C6
:1000900001C01D92A037B107E1F70E94AA000C949D
:1000A0000000FC0180911C0290911D0291838083CD
:1000B0000895FC018081918190931D0280931C0220
:1000C000049734F083E090E090931D0280931C022B
:1000D0000895FC0180910002909101029183808338
:1000E0000895FC0180819181909301028093000228
:1000F00008950F931F938C010E947C04F801808364
:100100001F910F910895FC01E081E0931E02EE2300
:1001100091F480911C0290911D02181619068CF41E
:10012000880F991F9093030280930202109220027D
:1001300010921F020895E13009F008950E947A0498
:1001400008958FEF9FEFEECF0E940E0408950E9456
:100150000D0408950E940F0484E690E067EB70E0C0
:100160000E948D040E9451010E944D0408958091C7
:100170001E02813021F120911F02309120028091D6
:1001800000029091010228173907D0F080910202F5
:10019000909103022FEF8F3F920749F001979093C0
:1001A00003028093020201961816190684F40E9435
:1001B00088041092200210921F020E94D703089513
:1001C0002C593F4F3093200220931F02089581E065
:1001D00080931E020E947A04ECCF80E592E0909317
:1001E0002B0280932A02809151028F5F80933D02FF
:1001F00010926D020E94B00408958130C9F090E021
:1002000024E01092430285E080934502209344024B
:100210009093460283E492E090932B0280932A020B
:100220002F5F20933D0210926D020E94B00408954A
:1002300088E492E00E94790094E025E0E2CF1F93E9
:100240000E94AC04182F8091260290912702A09161
:100250002802B09129020097A105B10521F080FD87
:1002600014C081FD05C0812F0E94BE041F91089516
:100270008D7F8093260290932702A0932802B0934B
:10028000290280E00E94FD00EECF8E7F809326023F
:1002900090932702A0932802B09329020E94ED00B8
:1002A000E2CF0E9488051092300210922F02109225
:1002B0002D0210922C021092310210922E021092F6
:1002C0003D0210926D0210924C0210923C0210926C
:1002D0002202109223021092240210922502109200
:1002E000260210922702109228021092290281E021
:1002F000809321020895809153028B3F41F4109224
:100300002202109223021092240210922502809160
:100310002102882309F408951092500284E080930A
:100320005202809351020E94AC04282F80912F0228
:1003300090913002892BA9F080912602909127029A
:10034000A0912802B09129028160809326029093A7
:100350002702A0932802B0932902822F0E94BE0494
:1003600008958091260290912702A0912802B091D1
:1003700029020097A105B10539F7822F0E94BE041A
:1003800080E592E090932B0280932A0280915102A3
:100390008F5F80933D0210926D020E94B004089519
:1003A000809153028A3F09F4A1C08B3F58F08C3FE3
:1003B00009F446C08D3FE1F194E080912102882349
:1003C00089F40895853F09F453C0893FA9F784E073
:1003D0008093550289E08093560296E08091210235
:1003E000882379F31092500282E080935202909316
:1003F00051020E94AC04282F80912F02909130026C
:10040000892B09F483C08091260290912702A09144
:100410002802B091290281608093260290932702DE
:10042000A0932802B0932902822F0E94BE0408954F
:100430008DE090E0909356028093550296E0BDCFF8
:100440008EE8809355028BEA8093560280EA80936F
:1004500057028CEE8093580281E48093590281E028
:1004600080935A0210925B0210925C029CE0A5CF2E
:10047000E0913202F0913302309709F49DCF8081F0
:1004800080935502882309F46DC0818180935602C0
:10049000882309F46AC0828180935702882309F473
:1004A00067C0838180935802882309F464C08481E3
:1004B00080935902882309F464C0858180935A028D
:1004C000882309F45BC0868180935B02882309F44A
:1004D0005BC0878180935C02882309F458C08085C3
:1004E00080935D02882391F19DE067CFE6E0F2E022
:1004F000A5E5B2E081918D9382E0E931F807D1F76B
:10050000809119028093680298E157CF809126026A
:1005100090912702A0912802B09129020097A1058D
:10052000B10509F078CF822F0E94BE0480E592E0E9
:1005300090932B0280932A02809151028F5F8093C7
:100540003D0210926D020E94B004089588E090E090
:10055000FC01EB5AFD4F119282E0EE35F807D9F716
:100560009DE02BCF80E090E0F3CF81E090E0F0CFF2
:1005700082E090E0EDCF83E090E0EACF85E090E08C
:10058000E7CF84E090E0E4CF86E090E0E1CF87E041
:1005900090E0DECF80915302823009F440C0833076
:1005A000A9F1813051F180912102882309F4089545
:1005B0001092500284E080935202809351020E9474
:1005C000AC04282F80912F0290913002892B89F161
:1005D0008091260290912702A0912802B0912902D1
:1005E00081608093260290932702A0932802B09303
:1005F0002902822F0E94BE04089585E592E00E94A0
:10060000830080912102882391F2D2CF85E592E088
:100610000E94710080912102882349F2C9CF85E5AB
:1006200092E00E94590080912102882309F4BFCFF3
:10063000BFCF8091260290912702A0912802B0910D
:1006400029020097A105B10559F6822F0E94BE0428
:1006500080E592E090932B0280932A0280915102D0
:100660008F5F80933D0210926D020E94B004089546
:10067000809153028330D9F1843099F1823059F15D
:1006800094E080912102882309F408951092500289
:1006900082E080935202909351020E94AC04282F72
:1006A00080912F0290913002892B39F1809126029E
:1006B00090912702A0912802B09129028160809335
:1006C000260290932702A0932802B0932902822F3A
:1006D0000E94BE04089585E592E00E94510096E0D4
:1006E000D0CF85E592E00E94790095E0CACF85E5FC
:1006F00092E00E94690096E0C4CF8091260290911A
:100700002702A0912802B09129020097A105B10506
:10071000A9F6822F0E94BE0480E592E090932B02FE
:1007200080932A02809151028F5F80933D02109244
:100730006D020E94B004089580912102882351F037
:1007400080915202863091F0873028F08730E1F0B6
:100750008A3091F008958130E9F08330D9F78091A3
:10076000530287FD1EC00E94CA02089583E0809351
:1007700021020E94A7000895E0916902F0916A02A7
:10078000309741F30995089582E0809321020E94F9
:10079000A40008958091530287FD06C00E9438038B
:1007A00008950E947B0108950E94D00108958091D0
:1007B0002102833009F008950E94AC04282F809113
:1007C0002F0290913002892BA9F0809126029091FE
:1007D0002702A0912802B09129028460809326020A
:1007E00090932702A0932802B0932902822F0E949F
:1007F000BE0408958091260290912702A0912802BC
:10080000B09129020097A105B10539F7822F0E9406
:10081000BE0481E00E94FD000895089508952D987A
:100820005E985D985F9828982A985B9840984198C0
:10083000239A2B98249A2C98219A29982B9A2B98B2
:100840002A985C98259A389A569A559A579A209AD7
:10085000539A549A399A229A52985A9AE9E6F0E0B1
:100860008081836080833A9A429A1092800010922D
:1008700081001092C50088E08093C400E1ECF0E0B4
:1008800080818861808386E08093C2008CE993E058
:1008900090933B0280933A020895CF93DF9378942C
:1008A000F894C0913402D091350210923502109222
:1008B00034022097E9F07894C0FF07C0E091360237
:1008C000F0913702309709F00995C1FF07C0E09118
:1008D0003802F0913902309709F00995C2FFE0CF54
:1008E000E0913A02F0913B023097D1F20995D8CFCE
:1008F0007894D6CF2D98089585B190E096958795F8
:10090000929582958F7089279F70892781700895AD
:1009100085B190E2892785B9089570933902609373
:1009200038029C01329522952F7023273F70232790
:10093000209389008295807F8093880010928500A3
:1009400010928400B198EFE6F0E0808182608083AD
:100950008DE08093810008958FB7F8948078089592
:1009600080912A0290912B020196909330028093FD
:100970002F02109231021092C6000895882311F4BC
:10098000F8940895789408951F920F920FB60F92DD
:1009900011242F938F939F93EF93FF9380912C02B9
:1009A00090912D02892BD9F19091C60080912E0251
:1009B000882381F4992361F44298429AFF91EF9140
:1009C0009F918F912F910F900FBE0F901F901895B0
:1009D00090932E02E0912C02F0912D029193F093CE
:1009E0002D02E0932C0280912E02815080932E02E2
:1009F000882311F710922D0210922C022FB7F89431
:100A000080913402909135028460909335028093F6
:100A1000340227FD02C0F894CFCF7894CDCF8091D7
:100A200004029091050290932D0280932C02BCCF7A
:100A30001F920F920FB60F9211242F938F939F93B3
:100A40002FB7F89480913402909135028260909390
:100A500035028093340227FD09C0F8949F918F914D
:100A60002F910F900FBE0F901F90189578949F9123
:100A70008F912F910F900FBE0F901F9018951F927E
:100A80000F920FB60F9211242F933F934F935F93C2
:100A90006F937F938F939F93AF93BF93EF93FF9346
:100AA000E0912F02F0913002309781F08091310275
:100AB0008823F1F0815080933102882301F18191E4
:100AC000F0933002E0932F028093C600E09AFF91EA
:100AD000EF91BF91AF919F918F917F916F915F91B6
:100AE0004F913F912F910F900FBE0F901F9018952F
:100AF00080818F5F815080933102882301F71092AB
:100B0000300210922F0210923D020E941F01DECF90
:100B10004FB7F894429820E030E080E090E0000089
:100B200000000000000000000000000000000000C5
:100B3000000000000000019653E0883E950779F719
:100B40002F5F3F4F2436310541F7429A20E030E0D5
:100B500080E090E0000000000000000000000000C5
:100B6000000000000000000000000000019653E0BB
:100B7000883E950779F72F5F3F4F81E0243F380784
:100B800039F78091C00080688093C000E09A80911E
:100B9000C10080688093C100E89A47FD02C0F894C4
:060BA00008957894089509
:100BA600000000000000000000000000000000003F
:100BB600000000000000000000000000000000002F
:100BC600000000000000000000000000000000001F
:100BD600000000000000000000000000000000000F
:100BE60000000000000000000000000000000000FF
:100BF60000000000000000000000000000000000EF
:100C060000000000000000000000000000000000DE
:100C160000000000000000000000000000000000CE
:100C260000000000000000000000000000000000BE
:100C360000000000000000000000000000000000AE
:100C4600000000000000000000000000000000009E
:100C5600000000000000000000000000000000008E
:100C6600000000000000000000000000000000007E
:100C7600000000000000000000000000000000006E
:100C8600000000000000000000000000000000005E
:100C9600000000000000000000000000000000004E
:100CA600B004FFFF51026485CC76AB69C4B0A53DA4
:0C0CB600B1A0BEBFC2F10D001100010092
:040000030000006891
:00000001FF
