:100000000C9434000C9443060C944F000C944F0055
:100010000C944F000C944F000C944F000C944F0024
:100020000C944F000C944F000C944F000C941C0641
:100030000C944F000C944F000C944F000C944F0004
:100040000C944F000C944F000C94C8050C944F0076
:100050000C944F000C944F000C944F000C944F00E4
:100060000C944F000C944F0011241FBECFEFD1E031
:10007000DEBFCDBF12E0A0E0B1E0ECEFFDE002C0DA
:1000800005900D92A233B107D9F712E0A2E3B2E0D6
:1000900001C01D92A938B107E1F70E94E4000C9459
:1000A0000000FC01809132029091330291838083A1
:1000B0000895FC01808191819093330280933202F4
:1000C000009791F0019763E070E00E94D706FC0171
:1000D000EE0FFF1FE050FE4F0190F081E02DF093F6
:1000E0003502E09334020895E0E0F0E0F093350249
:1000F000E09334020895FC0180910602909107027A
:10010000918380830895FC018081918190930702FF
:100110008093060208950F931F938C010E9480051F
:10012000F80180831F910F910895FC01E081E09315
:100130003602EE2359F410923802109237021092D0
:10014000330210923202109239020895E13009F020
:10015000089583E090E00E94480584E090E00E94CA
:10016000480585E090E00E94480586E090E00E9406
:10017000480587E090E00E94480588E090E00E94F2
:10018000480589E090E00E9448058AE090E00E94DE
:1001900048058BE090E00E9448058CE090E00E94CA
:1001A00048058DE090E00E9448058EE090E00E94B6
:1001B00048058FE090E00E94480508950E94A3043E
:1001C00008950E94A20408950E94A40484E190E08E
:1001D00061EF70E00E9491050E94E6010E94E20436
:1001E00008951F9380913602813009F463C02091F5
:1001F0003702309138028091060290910702281749
:10020000390708F459C0E0913402F0913502309773
:1002100009F475C090913902E90FF11D8081182F02
:100220009F5F90933902933009F466C013FD4CC070
:1002300083E090E00E94480514FD4BC084E090E00C
:100240000E94480515FD4AC085E090E00E944805DF
:1002500016FD49C086E090E00E94480517FD48C0A1
:1002600087E090E00E94480588E090E00E94480501
:1002700089E090E00E9448058AE090E00E944805ED
:100280008BE090E00E9448058CE090E00E944805D9
:100290008DE090E00E9448058EE090E00E944805C5
:1002A0008FE090E00E9448051092380210923702C9
:1002B0000E946C041F9108952C5E3F4F30933802CA
:1002C000209337021F91089583E00E940F0514FFC9
:1002D000B5CF84E00E940F0515FFB6CF85E00E94E0
:1002E0000F0516FFB7CF86E00E940F0517FFB8CFA6
:1002F00087E00E940F05B8CF1092390297CF0E9475
:100300008C05D2CF89E692E0909344028093430219
:1003100080916A028F5F80935602109286020E943B
:10032000B40508958130C9F090E024E010925C0299
:1003300085E080935E0220935D0290935F028CE5DE
:1003400092E090934402809343022F5F20935602E1
:10035000109286020E94B405089581E692E00E9400
:100360008B0094E025E0E2CF1F930E94B005182F88
:1003700080913F0290914002A0914102B0914202CF
:100380000097A105B10521F080FD14C081FD05C0D5
:10039000812F0E94C2051F9108958D7F80933F0297
:1003A00090934002A0934102B093420280E00E94E9
:1003B0009201EECF8E7F80933F0290934002A093F4
:1003C0004102B09342020E948201E2CF0E948C0659
:1003D0001092490210924802109246021092450271
:1003E00010924A0210924702109256021092860210
:1003F000109265021092550210923B0210923C023C
:1004000010923D0210923E0210923F021092400262
:10041000109241021092420281E080933A020895C4
:1004200080916C028B3F41F410923B0210923C028F
:1004300010923D0210923E0280913A02882309F404
:1004400008951092690284E080936B0280936A029F
:100450000E94B005282F8091480290914902892B73
:10046000A9F080913F0290914002A0914102B09189
:100470004202816080933F0290934002A093410228
:10048000B0934202822F0E94C205089580913F02DC
:1004900090914002A0914102B09142020097A105C3
:1004A000B10539F7822F0E94C20589E692E0909348
:1004B00044028093430280916A028F5F80935602C8
:1004C000109286020E94B405089580916C028A3FC2
:1004D00009F4A1C08B3F58F08C3F09F446C08D3F12
:1004E000E1F194E080913A02882389F40895853FF0
:1004F00009F453C0893FA9F784E080936E0289E034
:1005000080936F0296E080913A02882379F31092EB
:10051000690282E080936B0290936A020E94B005A8
:10052000282F8091480290914902892B09F483C0B9
:1005300080913F0290914002A0914102B09142020D
:10054000816080933F0290934002A0934102B09358
:100550004202822F0E94C20508958DE090E09093A0
:100560006F0280936E0296E0BDCF82E080936E02B0
:1005700080E980936F0284ED809370028CEE80930B
:10058000710281E48093720281E080937302109281
:100590007402109275029CE0A5CFE0914B02F0919D
:1005A0004C02309709F49DCF808180936E0288239E
:1005B00009F46DC0818180936F02882309F46AC0B9
:1005C000828180937002882309F467C083818093BD
:1005D0007102882309F464C08481809372028823A5
:1005E00009F464C0858180937302882309F45BC099
:1005F000868180937402882309F45BC0878180938D
:100600007502882309F458C0808580937602882378
:1006100091F19DE067CFECE1F2E0AEE6B2E08191CE
:100620008D9382E0EF32F807D1F780912F0280930B
:10063000810298E157CF80913F0290914002A091B2
:100640004102B09142020097A105B10509F078CFAF
:10065000822F0E94C20589E692E090934402809323
:10066000430280916A028F5F809356021092860245
:100670000E94B405089588E090E0FC01E259FD4F26
:10068000119282E0E737F807D9F79DE02BCF80E0A1
:1006900090E0F3CF81E090E0F0CF82E090E0EDCF0A
:1006A00083E090E0EACF85E090E0E7CF84E090E05F
:1006B000E4CF86E090E0E1CF87E090E0DECF80916C
:1006C0006C02823009F440C08330A9F1813051F1CD
:1006D00080913A02882309F408951092690284E017
:1006E00080936B0280936A020E94B005282F80914C
:1006F000480290914902892B89F180913F029091A3
:100700004002A0914102B0914202816080933F0279
:1007100090934002A0934102B0934202822F0E9424
:10072000C20508958EE692E00E94950080913A02FB
:10073000882391F2D2CF8EE692E00E9483008091CE
:100740003A02882349F2C9CF8EE692E00E9459000E
:1007500080913A02882309F4BFCFBFCF80913F0236
:1007600090914002A0914102B09142020097A105F0
:10077000B10559F6822F0E94C20589E692E0909356
:1007800044028093430280916A028F5F80935602F5
:10079000109286020E94B405089580916C02833005
:1007A000D9F1843099F1823059F194E080913A0284
:1007B000882309F408951092690282E080936B0205
:1007C00090936A020E94B005282F80914802909170
:1007D0004902892B39F180913F0290914002A0910A
:1007E0004102B0914202816080933F0290934002A7
:1007F000A0934102B0934202822F0E94C205089545
:100800008EE692E00E94510096E0D0CF8EE692E014
:100810000E948B0095E0CACF8EE692E00E947B009A
:1008200096E0C4CF80913F0290914002A091410296
:10083000B09142020097A105B105A9F6822F0E944E
:10084000C20589E692E0909344028093430280912E
:100850006A028F5F80935602109286020E94B4054E
:10086000089580913A02882351F080916B0286307E
:1008700091F0873028F08730E1F08A3091F00895C8
:100880008130E9F08330D9F780916C0287FD1EC07A
:100890000E945F03089583E080933A020E94E10082
:1008A0000895E0918202F0918302309741F3099517
:1008B000089582E080933A020E94DE0008958091BC
:1008C0006C0287FD06C00E94CD0308950E941002AD
:1008D00008950E946502089580913A02833009F0DC
:1008E00008950E94B005282F8091480290914902F6
:1008F000892BA9F080913F0290914002A091410282
:10090000B0914202846080933F0290934002A09392
:100910004102B0934202822F0E94C2050895809145
:100920003F0290914002A0914102B0914202009793
:10093000A105B10539F7822F0E94C20581E00E940E
:1009400092010895089508952D985E985D985F9896
:1009500028982A985B9840984198239A2B98249A33
:100960002C98219A29982B9A2B982A985C98259A4A
:10097000389A569A559A579A209A539A549A399A6D
:10098000229A52985A9AE9E6F0E080818360808347
:100990003A9A429A10928000109281001092C500FB
:1009A00088E08093C400E1ECF0E08081886180837E
:1009B00086E08093C20081E394E090935402809398
:1009C00053020895CF93DF937894F894C0914D0229
:1009D000D0914E0210924E0210924D022097E9F0F3
:1009E0007894C0FF07C0E0914F02F0915002309719
:1009F00009F00995C1FF07C0E0915102F091520240
:100A0000309709F00995C2FFE0CFE0915302F091D1
:100A100054023097D1F20995D8CF7894D6CF893047
:100A200089F18A3060F08C3089F18D3090F08E3011
:100A300059F18E30C8F08F3081F4419A0895853095
:100A4000F9F0863058F08730B9F0883078F0289A7D
:100A500008958A3079F08B3059F00895833071F021
:100A60008430D9F75C9A08952D9A08955E9A089576
:100A70002B9A08952A9A08955F9A08955B9A08958B
:100A80005D9A0895299A0895409A08952C9A089598
:100A9000893081F18A3060F08C3081F18D3090F0B6
:100AA0008E3051F18E30D0F08F3009F44198089596
:100AB0008530F1F0863060F08730B1F0883080F01A
:100AC000289808958A3071F08B3089F72B98089513
:100AD000833061F0843059F75C9808952D9808951B
:100AE0005E9808952A9808955F9808955B980895F0
:100AF0005D98089529980895409808952C98089530
:100B000085B190E096958795929582958F7089270B
:100B10009F7089278170089585B190E2892785B9F2
:100B2000089570935202609351029C013295229570
:100B30002F7023273F702327209389008295807F81
:100B4000809388001092850010928400B198EFE69F
:100B5000F0E08081826080838DE080938100089541
:100B60008FB7F89480780895809143029091440261
:100B70000196909349028093480210924A02109283
:100B8000C6000895882311F4F89408957894089580
:100B90001F920F920FB60F9211242F938F939F9352
:100BA000EF93FF938091450290914602892BD9F1F2
:100BB0009091C60080914702882381F4992361F4C3
:100BC0004298429AFF91EF919F918F912F910F90B0
:100BD0000FBE0F901F90189590934702E091450229
:100BE000F09146029193F0934602E0934502809182
:100BF0004702815080934702882311F710924602E2
:100C0000109245022FB7F89480914D0290914E02B8
:100C1000846090934E0280934D0227FD02C0F894A9
:100C2000CFCF7894CDCF80911402909115029093FC
:100C3000460280934502BCCF1F920F920FB60F92CF
:100C400011242F938F939F932FB7F89480914D0287
:100C500090914E02826090934E0280934D0227FD48
:100C600009C0F8949F918F912F910F900FBE0F9014
:100C70001F90189578949F918F912F910F900FBE90
:100C80000F901F9018951F920F920FB60F9211247C
:100C90002F933F934F935F936F937F938F939F9384
:100CA000AF93BF93EF93FF93E0914802F091490215
:100CB000309781F080914A028823F1F0815080932F
:100CC0004A02882301F18191F0934902E09348029E
:100CD0008093C600E09AFF91EF91BF91AF919F91F1
:100CE0008F917F916F915F914F913F912F910F90D5
:100CF0000FBE0F901F90189580818F5F8150809359
:100D00004A02882301F71092490210924802109279
:100D100056020E94B401DECF4FB7F894429820E00B
:100D200030E080E090E000000000000000000000E3
:100D3000000000000000000000000000000001961C
:100D400053E0883E950779F72F5F3F4F24363105F2
:100D500041F7429A20E030E080E090E0000000009F
:100D60000000000000000000000000000000000083
:100D700000000000019653E0883E950779F72F5F49
:100D80003F4F81E0243F380739F78091C0008068E9
:100D90008093C000E09A8091C10080688093C10078
:100DA000E89A47FD02C0F89408957894089597FB57
:100DB000092E07260AD077FD04D00CD006D00020DB
:100DC0001AF4709561957F4F0895F6F79095819587
:100DD0009F4F0895AA1BBB1B51E107C0AA1FBB1F51
:100DE000A617B70710F0A61BB70B881F991F5A95B7
:0C0DF000A9F780959095BC01CD010895F5
:100DFC0000000000000000000000000000000000E7
:100E0C0000000000000000000000000000000000D6
:100E1C0000000000000000000000000000000000C6
:100E2C0000000000000000000000000000000000B6
:100E3C0000000000000000000000000000000000A6
:100E4C000000000000000000000000000000000096
:100E5C000000000000000000000000000000000086
:100E6C000000000000000000000000000000000076
:100E7C000000000000000000000000000000000066
:100E8C000000000000000000000000000000000056
:100E9C000000000000000000000000000000000046
:100EAC000000000000000000000000000000000036
:100EBC000000000000000000000000000000000026
:100ECC000000000000000000000000000000000016
:100EDC000000000000000000000000000000000006
:100EEC0000000000000000000000000000000000F6
:100EFC00160208020E02B004000100040005FFFFF8
:100F0C00000008006A0248009000A0016485CC76BD
:100F1C00AB69C4B0A53DB1A0BEBFC2F10D001100BC
:020F2C000100C2
:040000030000006891
:00000001FF
