:100000000C9434000C943D050C944F000C944F005C
:100010000C944F000C944F000C944F000C944F0024
:100020000C944F000C944F000C944F000C94160548
:100030000C944F000C944F000C944F000C944F0004
:100040000C944F000C944F000C94C4040C944F007B
:100050000C944F000C944F000C944F000C944F00E4
:100060000C944F000C944F0011241FBECFEFD1E031
:10007000DEBFCDBF12E0A0E0B1E0E2EAFBE002C0EB
:1000800005900D92AC31B107D9F712E0ACE1B2E0C6
:1000900001C01D92AA36B107E1F70E94A2000C949C
:1000A0000000FC0180911C0290911D0291838083CD
:1000B0000895FC018081918190931D0280931C0220
:1000C0000895FC0180910002909101029183808348
:1000D0000895FC0180819181909301028093000238
:1000E00008950F931F938C010E948104F80180836F
:1000F0001F910F910895FC01E081E0931E02EE2311
:1001000091F480911C0290911D02181619068CF42E
:10011000880F991F9093030280930202109220028D
:1001200010921F020895E13009F008950E947F04A3
:1001300008958FEF9FEFEECF0E94D10308950E94A4
:10014000B70308950E94D20384E690E06FEA70E05E
:100150000E948D040E9461010E9408040895CF93BB
:10016000DF9380911E028130B9F120911F023091FE
:10017000200280910002909101022817390778F13E
:1001800080910202909103022FEF8F3F920749F076
:1001900001979093030280930202019618161906A4
:1001A0003CF5C0911C02D0911D02C530D10570F004
:1001B0008C2F0E94350488EC90E00E94B803CE0199
:1001C0000E945A042197C530D10590F71092200261
:1001D00010921F020E948103DF91CF9108952C5944
:1001E0003F4F3093200220931F02DF91CF9108955B
:1001F00081E080931E02EACF89E492E090932B0283
:1002000080932A0280914A028F5F80933B02109272
:1002100067020E94B00408958130C9F030E094E094
:1002200025E010923F0285E08093410290934002C6
:10023000309342028FE392E090932B0280932A0244
:1002400020933B02109267020E94B004089584E458
:1002500092E00E94710034E095E026E0E2CF1F9327
:100260000E94AC04182F8091260290912702A09141
:100270002802B09129020097A105B10521F080FD67
:1002800014C081FD05C0812F0E94BE041F910895F6
:100290008D7F8093260290932702A0932802B0932B
:1002A000290280E00E940C01EECF8E7F809326020F
:1002B00090932702A0932802B09329020E94FC0089
:1002C000E2CF0E9486051092300210922F02109207
:1002D0002D0210922C021092310210922E021092D6
:1002E0003B02109267021092620210923A02109240
:1002F00022021092230210922402109225021092E0
:10030000260210922702109228021092290281E000
:1003100080932102089580914C028B3F41F410920A
:100320002202109223021092240210922502809140
:100330002102882309F408951092490284E08093F1
:100340004B0280934A020E94AC04282F80912F0216
:1003500090913002892BA9F080912602909127027A
:10036000A0912802B0912902816080932602909387
:100370002702A0932802B0932902822F0E94BE0474
:1003800008958091260290912702A0912802B091B1
:1003900029020097A105B10539F7822F0E94BE04FA
:1003A00089E492E090932B0280932A0280914A0282
:1003B0008F5F80933B02109267020E94B004089501
:1003C00080914C028A3F09F448C08B3F58F08C3F23
:1003D00009F453C08D3FC9F194E080912102882334
:1003E00071F40895893FC1F784E080934E0289E05B
:1003F00080934F0296E080912102882391F310921E
:10040000490282E080934B0290934A020E94AC041E
:10041000282F80912F0290913002892B09F444C03B
:100420008091260290912702A0912802B091290282
:1004300081608093260290932702A0932802B093B4
:100440002902822F0E94BE0408958DE090E09093CF
:100450004F0280934E0296E0C0CFE6E0F2E0AEE4B9
:10046000B2E081918D9382E0E931F807D1F7809174
:1004700019028093610298E1B0CF80934E0282E42A
:1004800080934F028DE08093500286E78093510263
:1004900081E48093520281E08093530210925402CF
:1004A000109255029CE099CF8091260290912702EC
:1004B000A0912802B09129020097A105B10509F089
:1004C000B7CF822F0E94BE0489E492E090932B0262
:1004D00080932A0280914A028F5F80933B021092A0
:1004E00067020E94B004089580914C02823009F4A2
:1004F00040C08330A9F1813051F1809121028823DD
:1005000009F408951092490284E080934B0280938D
:100510004A020E94AC04282F80912F029091300251
:10052000892B89F18091260290912702A0912802BF
:10053000B091290281608093260290932702A093B4
:100540002802B0932902822F0E94BE0408958EE4EF
:1005500092E00E947B0080912102882391F2D2CF09
:100560008EE492E00E94690080912102882349F282
:10057000C9CF8EE492E00E94590080912102882325
:1005800009F4BFCFBFCF8091260290912702A0919E
:100590002802B09129020097A105B10559F6822FD2
:1005A0000E94BE0489E492E090932B0280932A0279
:1005B00080914A028F5F80933B02109267020E94F3
:1005C000B004089580914C028330D9F1843099F1C0
:1005D000823059F194E080912102882309F4089532
:1005E0001092490282E080934B0290934A020E944B
:1005F000AC04282F80912F0290913002892B39F181
:100600008091260290912702A0912802B0912902A0
:1006100081608093260290932702A0932802B093D2
:100620002902822F0E94BE0408958EE492E00E9467
:10063000510096E0D0CF8EE492E00E94710095E0E8
:10064000CACF8EE492E00E94610096E0C4CF809110
:10065000260290912702A0912802B09129020097CA
:10066000A105B105A9F6822F0E94BE0489E492E09B
:1006700090932B0280932A0280914A028F5F80938D
:100680003B02109267020E94B004089580912102FB
:10069000882351F080914B02863091F0873028F00A
:1006A0008730E1F08A3091F008958130E9F08330AD
:1006B000D9F780914C0287FD1EC00E9474020895F4
:1006C00083E0809321020E949F000895E0916302DD
:1006D000F0916402309741F30995089582E0809388
:1006E00021020E949C00089580914C0287FD06C063
:1006F0000E94E20208950E948B0108950E94E00189
:10070000089580912102833009F008950E94AC047D
:10071000282F80912F0290913002892BA9F080918F
:10072000260290912702A0912802B09129028460AC
:100730008093260290932702A0932802B093290267
:10074000822F0E94BE040895809126029091270274
:10075000A0912802B09129020097A105B10539F7AF
:10076000822F0E94BE0481E00E940C01089508952A
:100770000097B1F020E030E0000000000000000031
:100780000000000000000000000000000000000069
:100790002F5F3F4F43E0283E340771F7019751F731
:1007A000089508952D985E985D985F9828982A98E6
:1007B000239A2B98249A2C98219A29982B9A2B9833
:1007C0002A98259A569A559A579A209A229A529878
:1007D0005A9AE9E6F0E0808183608083549A5C9ABB
:1007E00010928000109281001092C50088E08093E2
:1007F000C400E1ECF0E080818861808386E0809332
:10080000C20086E493E09093390280933802089501
:10081000CF93DF937894F894C0913202D091330251
:1008200010923302109232022097E9F07894C0FFC0
:1008300007C0E0913402F0913502309709F0099534
:10084000C1FF07C0E0913602F0913702309709F0FE
:100850000995C2FFE0CFE0913802F091390230975C
:10086000D1F20995D8CF7894D6CF883009F1893064
:1008700048F08B30B9F08C3058F08C30A9F08D30C6
:1008800079F00895863091F0873030F05F9A0895BE
:100890008930B9F7299A0895853099F75D9A0895B6
:1008A0002D9A08952B9A08952C9A08955E9A08958A
:1008B000289A0895883009F1893048F08B30B9F0D2
:1008C0008C3058F08C30A9F08D3079F00895863056
:1008D00091F0873030F05F9808958930B9F7299802
:1008E0000895853099F75D9808952D9808952B986F
:1008F00008952C9808955E980895289808952D9845
:10090000089585B190E096958795929582958F7020
:1009100089279F70892781700895709337026093AB
:1009200036029C01329522952F7023273F70232792
:10093000209389008295807F8093880010928500A3
:1009400010928400B198EFE6F0E0808182608083AD
:100950008DE08093810008958FB7F8948078089592
:1009600080912A0290912B020196909330028093FD
:100970002F02109231021092C6000895882311F4BC
:10098000F8940895789408951F920F920FB60F92DD
:1009900011242F933F938F939F93EF93FF93209175
:1009A0002C0230912D0221153105B1F19091C60034
:1009B00080912E02882311F490932E02F9019193D5
:1009C000F0932D02E0932C0280912E0281508093AF
:1009D0002E02882391F410922D0210922C022FB730
:1009E000F8948091320290913302846090933302A4
:1009F0008093320227FD0EC0F8945C985C9AFF91B8
:100A0000EF919F918F913F912F910F900FBE0F907B
:100A10001F9018957894F1CF80910402909105026F
:100A200080932C0290932D029C01C0CF1F920F92B5
:100A30000FB60F9211242F938F939F932FB7F89493
:100A400080913202909133028260909333028093BE
:100A5000320227FD09C0F8949F918F912F910F903A
:100A60000FBE0F901F90189578949F918F912F91A2
:100A70000F900FBE0F901F9018951F920F920FB6F8
:100A80000F9211242F933F934F935F936F937F9314
:100A90008F939F93AF93BF93EF93FF93E0912F02B8
:100AA000F0913002309781F0809131028823F1F08B
:100AB000815080933102882301F18191F0933002BB
:100AC000E0932F028093C600E09AFF91EF91BF91CF
:100AD000AF919F918F917F916F915F914F913F91D6
:100AE0002F910F900FBE0F901F90189580818F5FF0
:100AF000815080933102882301F7109230021092C6
:100B00002F0210923B020E942F01DECF4FB7F894C4
:100B10005C9820E030E080E090E000000000000001
:100B200000000000000000000000000000000000C5
:100B30000000019653E0883E950779F72F5F3F4FFD
:100B40002436310541F75C9A20E030E080E090E007
:100B50000000000000000000000000000000000095
:100B60000000000000000000019653E0883E950759
:100B700079F72F5F3F4F81E0243F380739F78091A5
:100B8000C00080688093C000E09A8091C1008068B6
:100B90008093C100E89A47FD02C0F89408957894C4
:020BA0000895B6
:100BA2000000000000000000000000000000000043
:100BB2000000000000000000000000000000000033
:100BC2000000000000000000000000000000000023
:100BD2000000000000000000000000000000000013
:100BE2000000000000000000000000000000000003
:100BF20000000000000000000000000000000000F3
:100C020000000000000000000000000000000000E2
:100C120000000000000000000000000000000000D2
:100C220000000000000000000000000000000000C2
:100C320000000000000000000000000000000000B2
:100C420000000000000000000000000000000000A2
:100C52000000000000000000000000000000000092
:100C62000000000000000000000000000000000082
:100C72000000000000000000000000000000000072
:100C82000000000000000000000000000000000062
:100C92000000000000000000000000000000000052
:100CA200B004FFFF4A026485CC76AB69C4B0A53DAF
:0C0CB200B1A0BEBFC2F10D001100010096
:040000030000006891
:00000001FF
